:020000040802F0
:10000000381B002025100208FD36020809370208B7
:100010000F370208153702081B37020800000000DE
:10002000000000000000000000000000213702086E
:100030002D37020800000000393702084537020852
:100040006D1002086D1002086D1002086D10020894
:100050006D1002086D100208C95702086D100208E1
:100060006D1002086D1002086D1002086D10020874
:10007000E95B02086D100208015D02086D100208BC
:100080006D1002086D1002086D1002086D10020854
:100090006D1002086D1002086D1002086D10020844
:1000A0006D1002086D1002086D1002086D10020834
:1000B0006D1002086D1002086D1002086D10020824
:1000C0006D1002086D1002086D1002086D10020814
:1000D0006D1002086D1002086D100208355D0208EF
:1000E0006D1002086D1002086D1002086D100208F4
:1000F000F9530208196002086D1002086D10020819
:10010000000000006D1002086D1002086D1002085A
:100110006D1002086D1002086D1002086D100208C3
:100120006D1002086D100208A55402086D10020837
:100130006D10020800000000000000006D100208B1
:100140006D1002086D1002086D1002086D10020893
:100150006D1002086D1002086D1002086D10020883
:100160006D1002086D1002086D1002086D10020873
:100170006D1002086D1002086D10020800000000EA
:080180006D1002086D10020869
:1001880081F0004102E000BF83F0004330B54FEA40
:1001980041044FEA430594EA050F08BF90EA020FAD
:1001A8001FBF54EA000C55EA020C7FEA645C7FEA40
:1001B800655C00F0E2804FEA5454D4EB5555B8BF63
:1001C8006D420CDD2C4480EA020281EA030382EAD4
:1001D800000083EA010180EA020281EA0303362D66
:1001E80088BF30BD11F0004F4FEA01314FF4801C39
:1001F8004CEA113102D0404261EB410113F0004F4B
:100208004FEA03334CEA133302D0524263EB430301
:1002180094EA050F00F0A780A4F10104D5F1200E9F
:100228000DDB02FA0EFC22FA05F2801841F10001FA
:1002380003FA0EF2801843FA05F359410EE0A5F1CE
:1002480020050EF1200E012A03FA0EFC28BF4CF0FF
:10025800020C43FA05F3C01851EBE37101F00045B5
:1002680007D54FF0000EDCF1000C7EEB00006EEBC2
:100278000101B1F5801F1BD3B1F5001F0CD349084C
:100288005FEA30004FEA3C0C04F101044FEA4452A3
:1002980012F5800F80F09A80BCF1004F08BF5FEA2A
:1002A800500C50F1000041EB045141EA050130BD0A
:1002B8005FEA4C0C404141EB0101013C28BFB1F51C
:1002C800801FE9D291F0000F04BF01460020B1FA67
:1002D80081F308BF2033A3F10B03B3F120020CDA3A
:1002E8000C3208DD02F1140CC2F10C0201FA0CF018
:1002F80021FA02F10CE002F11402D8BFC2F1200C7D
:1003080001FA02F120FA0CFCDCBF41EA0C01904032
:10031800E41AA2BF01EB0451294330BD6FEA04047B
:100328001F3C1CDA0C340EDC04F11404C4F1200266
:1003380020FA04F001FA02F340EA030021FA04F378
:1003480045EA030130BDC4F10C04C4F1200220FACF
:1003580002F001FA04F340EA0300294630BD21FA0D
:1003680004F0294630BD94F0000F83F4801306BFD3
:1003780081F480110134013D4EE77FEA645C18BFC7
:100388007FEA655C29D094EA050F08BF90EA020F5E
:1003980005D054EA000C04BF1946104630BD91EA56
:1003A800030F1EBF0021002030BD5FEA545C05D159
:1003B8004000494128BF41F0004130BD14F5800498
:1003C8003CBF01F5801130BD01F0004545F0FE410C
:1003D80041F470014FF0000030BD7FEA645C1ABF41
:1003E800194610467FEA655C1CBF0B46024650EA78
:1003F800013406BF52EA033591EA030F41F40021A4
:1004080030BD00BF90F0000F04BF0021704730B529
:100418004FF4806404F132044FF000054FF00001FE
:1004280050E700BF90F0000F04BF0021704730B5BF
:100438004FF4806404F1320410F0004548BF404294
:100448004FF000013EE700BF42004FEAE2014FEAE9
:1004580031014FEA02701FBF12F07F4393F07F4FC4
:1004680081F06051704732F07F4208BF704793F0C7
:100478007F4F04BF41F40021704730B54FF46074DA
:1004880001F0004521F000411CE700BF50EA0102DD
:1004980008BF704730B54FF000050AE050EA010286
:1004A80008BF704730B511F0004502D5404261EBF6
:1004B80041014FF4806404F132045FEA915C3FF437
:1004C800D8AE4FF003025FEADC0C18BF03325FEAD4
:1004D800DC0C18BF033202EBDC02C2F1200300FA85
:1004E80003FC20FA02F001FA03FE40EA0E0021FAAA
:1004F80002F11444BDE600BF70B54FF0FF0C4CF498
:10050800E06C1CEA11541DBF1CEA135594EA0C0F49
:1005180095EA0C0F00F0DEF82C4481EA030621EA84
:100528004C5123EA4C5350EA013518BF52EA0335BF
:1005380041F4801143F4801338D0A0FB02CE4FF071
:100548000005E1FB02E506F00042E0FB03E54FF0A1
:100558000006E1FB03569CF0000F18BF4EF0010E99
:10056800A4F1FF04B6F5007F64F5407404D25FEA95
:100578004E0E6D4146EB060642EAC62141EA555148
:100588004FEAC52040EA5E504FEACE2EB4F1FD0C8A
:1005980088BFBCF5E06F1ED8BEF1004F08BF5FEA08
:1005A800500E50F1000041EB045170BD06F00046BA
:1005B80046EA010140EA020081EA0301B4EB5C0467
:1005C800C2BFD4EB0C0541EA045170BD41F480115F
:1005D8004FF0000E013C00F3AB8014F1360FDEBF84
:1005E800002001F0004170BDC4F10004203C35DA60
:1005F8000C341BDC04F11404C4F1200500FA05F3E3
:1006080020FA04F001FA05F240EA020001F0004283
:1006180021F0004110EBD37021FA04F642EB0601F9
:100628005EEA430E08BF20EAD37070BDC4F10C0423
:10063800C4F1200500FA04F320FA05F001FA04F2E7
:1006480040EA020001F0004110EBD37041F10001D3
:100658005EEA430E08BF20EAD37070BDC4F12005DE
:1006680000FA05F24EEA020E20FA04F301FA05F246
:1006780043EA020321FA04F001F0004121FA04F2EE
:1006880020EA020000EBD3705EEA430E08BF20EABE
:10069800D37070BD94F0000F0FD101F000464000F8
:1006A80041EB010111F4801F08BF013CF7D041EA7A
:1006B800060195F0000F18BF704703F0004652007E
:1006C80043EB030313F4801F08BF013DF7D043EA4F
:1006D8000603704794EA0C0F0CEA135518BF95EA05
:1006E8000C0F0CD050EA410618BF52EA4306D1D18C
:1006F80081EA030101F000414FF0000070BD50EAAB
:10070800410606BF1046194652EA430619D094EA34
:100718000C0F02D150EA013613D195EA0C0F05D11E
:1007280052EA03361CBF104619460AD181EA030172
:1007380001F0004141F0FE4141F470014FF000002A
:1007480070BD41F0FE4141F4780170BD70B54FF0C5
:10075800FF0C4CF4E06C1CEA11541DBF1CEA135545
:1007680094EA0C0F95EA0C0F00F0A7F8A4EB050427
:1007780081EA030E52EA03354FEA013100F088801E
:100788004FEA03334FF0805545EA131343EA1263E7
:100798004FEA022245EA111545EA10654FEA00269C
:1007A8000EF000419D4208BF964244F1FD0404F555
:1007B800407402D25B084FEA3202B61A65EB0305B1
:1007C8005B084FEA32024FF480104FF4002CB6EB6E
:1007D800020E75EB030E22BFB61A754640EA0C00EE
:1007E8005B084FEA3202B6EB020E75EB030E22BF2E
:1007F800B61A754640EA5C005B084FEA3202B6EB6F
:10080800020E75EB030E22BFB61A754640EA9C002D
:100818005B084FEA3202B6EB020E75EB030E22BFFD
:10082800B61A754640EADC0055EA060E18D04FEABB
:10083800051545EA16754FEA06164FEAC30343EA5B
:1008480052734FEAC2025FEA1C1CC0D111F4801F28
:100858000BD141EA00014FF000004FF0004CB6E721
:1008680011F4801F04BF01430020B4F1FD0C88BFC0
:10087800BCF5E06F3FF6AFAEB5EB030C04BFB6EBCB
:10088800020C5FEA500C50F1000041EB045170BDBE
:100898000EF0004E4EEA113114EB5C04C2BFD4EBEB
:1008A8000C0541EA045170BD41F480114FF0000E6F
:1008B800013C90E645EA060E8DE60CEA135594EAEB
:1008C8000C0F08BF95EA0C0F3FF43BAF94EA0C0FEE
:1008D8000AD150EA01347FF434AF95EA0C0F7FF463
:1008E80025AF104619462CE795EA0C0F06D152EAB7
:1008F80003353FF4FDAE1046194622E750EA41069B
:1009080018BF52EA43067FF4C5AE50EA41047FF4AB
:100918000DAF52EA43057FF4EBAE12E74FEA41020E
:10092800B2F1E04324BFB3F5001CDCF1FE5C0DD945
:1009380001F0004C4FEAC0024CEA5070B2F1004F8F
:1009480040EB830008BF20F00100704711F0804F92
:1009580021D113F13872BCBF01F00040704741F457
:1009680080114FEA5252C2F11802C2F1200C10FA5B
:100978000CF320FA02F018BF40F001004FEAC1233F
:100988004FEAD32303FA0CFC40EA0C0023FA02F3E3
:100998004FEA4303CCE77FEA625307D150EA0133B9
:1009A8001EBF4FF0FE4040F44000704701F0004089
:1009B80040F0FE4040F40000704700BF80F0004067
:1009C80002E000BF81F0004142001FBF5FEA41031F
:1009D80092EA030F7FEA226C7FEA236C6AD04FEA1F
:1009E8001262D2EB1363C1BFD21841404840414064
:1009F800B8BF5B42192B88BF704710F0004F40F416
:100A0800000020F07F4018BF404211F0004F41F431
:100A1800000121F07F4118BF494292EA030F3FD0FD
:100A2800A2F1010241FA03FC10EB0C00C3F1200310
:100A380001FA03F100F0004302D5494260EB40009F
:100A4800B0F5000F13D3B0F1807F06D340084FEA0A
:100A5800310102F10102FE2A51D2B1F1004F40EBFF
:100A6800C25008BF20F0010040EA03007047490067
:100A780040EB0000013A28BFB0F5000FEDD2B0FA04
:100A880080FCACF1080CB2EB0C0200FA0CF0AABF27
:100A980000EBC25052421843BCBFD04018437047C5
:100AA80092F0000F81F4000106BF80F400000132CB
:100AB800013BB5E74FEA41037FEA226C18BF7FEAA2
:100AC800236C21D092EA030F04D092F0000F08BFE4
:100AD8000846704790EA010F1CBF0020704712F0CB
:100AE8007F4F04D1400028BF40F00040704712F10A
:100AF80000723CBF00F50000704700F0004343F06F
:100B0800FE4040F4000070477FEA226216BF0846A4
:100B18007FEA23630146420206BF5FEA412390EA67
:100B2800010F40F4800070474FF0000304E000BF5D
:100B380010F0004348BF40425FEA000C08BF70470E
:100B480043F0964301464FF000001CE050EA0102D2
:100B580008BF70474FF000030AE000BF50EA0102E7
:100B680008BF704711F0004302D5404261EB4101D4
:100B78005FEA010C02BF84460146002043F0B643F9
:100B880008BFA3F18053A3F50003BCFA8CF2083A1E
:100B9800A3EBC25310DB01FA02FC634400FA02FC27
:100BA800C2F12002BCF1004F20FA02F243EB02002E
:100BB80008BF20F00100704702F1200201FA02FC90
:100BC800C2F1200250EA4C0021FA02F243EB020083
:100BD80008BF20EADC7070474FF0FF0C1CEAD052C7
:100BE8001EBF1CEAD15392EA0C0F93EA0C0F6FD088
:100BF8001A4480EA010C400218BF5FEA41211ED066
:100C08004FF0006343EA501043EA5111A0FB013151
:100C18000CF00040B1F5000F3EBF490041EAD37126
:100C28005B0040EA010062F17F02FD2A1DD8B3F1A2
:100C3800004F40EBC25008BF20F00100704790F011
:100C4800000F0CF0004C08BF49024CEA502040EA63
:100C580051207F3AC2BFD2F1FF0340EAC250704729
:100C680040F400004FF00003013A5DDC12F1190F67
:100C7800DCBF00F000407047C2F10002410021FAD9
:100C880002F1C2F1200200FA02FC5FEA310040F1F1
:100C9800000053EA4C0308BF20EADC70704792F06A
:100CA800000F00F0004C02BF400010F4000F013AA2
:100CB800F9D040EA0C0093F0000F01F0004C02BF9D
:100CC800490011F4000F013BF9D041EA0C018FE70C
:100CD8000CEAD15392EA0C0F18BF93EA0C0F0AD012
:100CE80030F0004C18BF31F0004CD8D180EA010038
:100CF80000F00040704790F0000F17BF90F0004FD1
:100D0800084691F0000F91F0004F14D092EA0C0FB2
:100D180001D142020FD193EA0C0F03D14B0218BF45
:100D2800084608D180EA010000F0004040F0FE408B
:100D380040F40000704740F0FE4040F44000704727
:100D48004FF0FF0C1CEAD0521EBF1CEAD15392EAA6
:100D58000C0F93EA0C0F69D0A2EB030280EA010C96
:100D680049024FEA402037D04FF0805343EA11112F
:100D780043EA10130CF000408B4238BF5B0042F18D
:100D88007D024FF4000C8B4224BF5B1A40EA0C0032
:100D9800B3EB510F24BFA3EB510340EA5C00B3EB64
:100DA800910F24BFA3EB910340EA9C00B3EBD10F52
:100DB80024BFA3EBD10340EADC001B0118BF5FEAA4
:100DC8001C1CE0D1FD2A3FF650AF8B4240EBC250CD
:100DD80008BF20F0010070470CF0004C4CEA50208E
:100DE8007F32C2BFD2F1FF0340EAC250704740F4DD
:100DF80000004FF00003013A37E792F0000F00F0CF
:100E0800004C02BF400010F4000F013AF9D040EA4C
:100E18000C0093F0000F01F0004C02BF490011F4E0
:100E2800000F013BF9D041EA0C0195E70CEAD153D8
:100E380092EA0C0F08D142027FF47DAF93EA0C0FBF
:100E48007FF470AF084676E793EA0C0F04D14B02A3
:100E58003FF44CAF08466EE730F0004C18BF31F055
:100E6800004CCAD130F000427FF45CAF31F000434F
:100E78007FF43CAF5FE700BF4FF0FF3C06E000BFE8
:100E88004FF0010C02E000BF4FF0010C4DF804CD0B
:100E98004FEA40024FEA41037FEA226C18BF7FEA1B
:100EA800236C11D001B052EA530C18BF90EA010F1D
:100EB80058BFB2EB030088BFC81738BF6FEAE170AC
:100EC80018BF40F0010070477FEA226C02D15FEA48
:100ED800402C05D17FEA236CE4D15FEA412CE1D0B4
:100EE8005DF8040B704700BF844608466146FFE77B
:100EF8000FB5FFF7C9FF002848BF10F1000F0FBD5D
:100F08004DF808EDFFF7F4FF0CBF012000205DF855
:100F180008FB00BF4DF808EDFFF7EAFF34BF0120DA
:100F280000205DF808FB00BF4DF808EDFFF7E0FF73
:100F380094BF012000205DF808FB00BF4DF808EDC4
:100F4800FFF7D2FF94BF012000205DF808FB00BF27
:100F58004DF808EDFFF7C8FF34BF012000205DF809
:100F680008FB00BF4FEA4002B2F1FE4F0FD34FF02B
:100F78009E03B3EB12620DD94FEA002343F00043FE
:100F880010F0004F23FA02F018BF404270474FF0AC
:100F98000000704712F1610F01D1420205D110F033
:100FA800004008BF6FF0004070474FF000007047E6
:100FB8004FEA40024FEA41037FEA226C02D15FEA1E
:100FC800402C08D17FEA236C02D15FEA412C02D180
:100FD8004FF0000070474FF00100704710B5054C06
:100FE800237833B9044B13B10448AFF300800123CD
:100FF800237010BD9006002000000000F081020858
:1010080008B5034B1BB103490348AFF3008008BD83
:101018000000000094060020F0810208002103E08F
:101028000B4B5B58435004310A480B4B42189A4209
:10103800F6D30A4A02E0002342F8043B084B9A42DE
:10104800F9D305F077FA05F06FFD02F0AFFB7047B2
:101058004486020800000020900600209006002028
:10106800380F0020FEE7000080B582B000AF78603E
:101078007B68424A93424FD07B68404A934278D873
:101088007B683F4A93422CD07B683D4A934270D894
:101098007B683C4A934263D07B683A4A934268D85B
:1010A8007B68394A934252D07B68374A934260D86A
:1010B8007B68364A934241D07B68344A934258D879
:1010C8007B68334A934230D07B68314A934250D888
:1010D8007B68304A93420DD07B682F4A934212D0E6
:1010E80047E040F6041001F0EFF940F6041001F073
:1010F8000DFA3FE040F6110001F0E6F940F6110064
:1011080001F004FA36E040F6120001F0DDF940F68D
:10111800120001F0FBF92DE040F6051001F0D4F9BA
:1011280040F6051001F0F2F924E040F6130001F052
:10113800CBF940F6130001F0E9F91BE040F6140082
:1011480001F0C2F940F6140001F0E0F912E040F6AF
:101158001E0001F0B9F940F61E0001F0D7F909E0C8
:1011680040F61F0001F0B0F940F61F0001F0CEF97B
:1011780000E000BF00BF0837BD4680BD0014014035
:1011880000100140007C0040007800400050004002
:10119800004C0040004400400048004080B586B044
:1011A80000AF7860396000237B6100233B61002336
:1011B800FB600023BB607B68524A934239D07B684E
:1011C800504A934258D87B684F4A93422CD07B6848
:1011D8004D4A934250D87B684C4A934247D07B682B
:1011E8004A4A934248D87B68494A93423AD07B6836
:1011F800474A934240D87B68464A93422DD07B6841
:10120800444A934238D87B68434A934220D07B684B
:10121800414A934230D87B68404A93420ED07B685B
:101228003F4A93420FD027E0032001F0B1F97861DB
:1012380023E0032001F0ACF978611EE0022001F000
:10124800A7F9786119E0022001F0A2F9786114E0A9
:10125800022001F09DF978610FE0022001F098F971
:1012680078610AE0022001F093F9786105E0022034
:1012780001F08EF9786100E000BF7B680C331B68D1
:1012880003F40043002B1DD07B695A003B685B08C0
:101298001A443B68B2FBF3F3BB60BA684FF6F073CD
:1012A80013403B61BB6803F00703FB607B680833AE
:1012B8001A683969FB680B439BB279680831134394
:1012C8000B601BE03B685A087B691A443B68B2FB19
:1012D800F3F3BB60BA684FF6F07313403B61BB6829
:1012E80003F00F03FB607B6808331A683969FB68F1
:1012F8000B439BB27968083113430B6000BF183762
:10130800BD4680BD0014014000100140007C004033
:101318000078004000500040004C0040004400406D
:101328000048004080B483B000AF786039607B68C3
:101338000C331B687A680C3223F4C06313607B6833
:101348000C331A687B680C3319463B6813430B60EF
:1013580000BF0C37BD4680BC704780B483B000AF77
:10136800786039607B680C331B687A680C3223F428
:10137800805313607B680C331A687B680C331946FA
:101388003B6813430B6000BF0C37BD4680BC7047F9
:1013980080B483B000AF786039607B6810331B6815
:1013A8007A68103223F4405313607B6810331A684C
:1013B8007B68103319463B6813430B6000BF0C373A
:1013C800BD4680BC704780B483B000AF78607B684E
:1013D8000C331B687A680C3243F40053136000BF67
:1013E8000C37BD4680BC704780B483B000AF7860CE
:1013F8007B680C331B687A680C3223F40053136043
:1014080000BF0C37BD4680BC704780B485B000AFC4
:10141800786039600023FB607B680C331B68FB60D5
:10142800FB6823F00803FB60FA683B681343FB6022
:101438007B680C331A46FB68136000BF1437BD463F
:1014480080BC704780B485B000AF786039600023F5
:10145800FB607B680C331B68FB60FB6823F00403AC
:10146800FB60FA683B681343FB607B680C331A46E1
:10147800FB68136000BF1437BD4680BC704780B45A
:1014880083B000AF78607B6804331B689BB2C3F3FA
:1014980008039BB218460C37BD4680BC704780B421
:1014A80085B000AF786039600023FB607B68143337
:1014B8001B68FB60FB6823F48073FB60FA683B6879
:1014C8001343FB607B6814331A46FB68136000BF44
:1014D8001437BD4680BC704780B485B000AF7860D3
:1014E80039600023FB607B6814331B68FB60FB6872
:1014F80023F40073FB60FA683B681343FB607B6866
:1015080014331A46FB68136000BF1437BD4680BC0D
:10151800704780B485B000AF786039600023FB6005
:101528007B6814331B68FB60FB6823F04003FB6097
:10153800FA683B681343FB607B6814331A46FB6800
:10154800136000BF1437BD4680BC704780B485B0B7
:1015580000AF786039600023FB607B6814331B6838
:10156800FB60FB6823F08003FB60FA683B68134369
:10157800FB607B6814331A46FB68136000BF14379E
:10158800BD4680BC704780B483B000AF78600B461E
:101598007B807B889B099BB21A467B6813441A6838
:1015A8007B8803F01F0322FA03F303F00103002BE7
:1015B80001D0012300E0002318460C37BD4680BC4B
:1015C800704780B483B000AF78600B467B807B881F
:1015D8009B099BB21A467B6813441A687B8803F000
:1015E8001F03012101FA03F3DB437988890989B2D2
:1015F80008467968014413400B6000BF0C37BD46AC
:1016080080BC704780B485B000AF78603960002333
:10161800FB603B6823F47F6323F00F03FB603B68A8
:10162800C3F30B033B60FB68B3F1805F09D17B68B0
:101638000C331A687B680C3319463B6813430B60FC
:1016480028E0FB68B3F1005F09D17B6810331A68A2
:101658007B68103319463B6813430B601AE0FB683C
:10166800B3F1804F09D17B6814331A687B6814334F
:1016780019463B6813430B600CE0FB68B3F1004F5D
:1016880008D17B6880331A687B68803319463B68C9
:1016980013430B6000BF1437BD4680BC704780B44D
:1016A80085B000AF786039600023FB603B6823F4A5
:1016B8007F6323F00F03FB603B68C3F30B033B60BE
:1016C800FB68B3F1805F09D17B680C331A683B680B
:1016D800DB4379680C3113400B6028E0FB68B3F1F9
:1016E800005F09D17B6810331A683B68DB4379686F
:1016F800103113400B601AE0FB68B3F1804F09D139
:101708007B6814331A683B68DB43796814311340EB
:101718000B600CE0FB68B3F1004F08D17B688033A5
:101728001A683B68DB437968803113400B6000BF5F
:101738001437BD4680BC704780B483B000AF786072
:1017480039603B689A097B6813441A683B6803F060
:101758001F0322FA03F303F00103002B01D0012336
:1017680000E0002318460C37BD4680BC70470000D7
:1017780080B582B000AF78607B687F4A934200F002
:10178800D1807B687C4A934200F2F0807B687B4A78
:10179800934200F0BE807B68784A934200F2E6806C
:1017A8007B68774A934200F0AB807B68744A934227
:1017B80000F2DC807B68734A934200F098807B6873
:1017C800704A934200F2D2807B686F4A93424FD0AE
:1017D8007B686D4A934200F2C9807B686B4A9342EA
:1017E80000F0BB807B68694A934200F2BF807B6847
:1017F800674A934200F0A8807B68654A934200F2EA
:10180800B5807B68634A934200F095807B68614AA3
:10181800934200F2AB807B685F4A93425ED07B685C
:101828005D4A934200F2A2807B685C4A93424CD0A6
:101838007B685A4A934200F299807B68584A9342DF
:101848003AD07B68564A934200F290807B68554AAA
:10185800934228D07B68534A934200F287807B6882
:10186800B3F1804F0DD07B684F4A934212D07DE090
:101878004FF4106000F028FE4FF4106000F046FEB0
:1018880075E04FF4006000F01FFE4FF4006000F0B8
:101898003DFE6CE040F6010000F016FE40F6010047
:1018A80000F034FE63E040F6020000F00DFE40F662
:1018B800020000F02BFE5AE040F6030000F004FEA0
:1018C80040F6030000F022FE51E040F6040000F06C
:1018D800FBFD40F6040000F019FE48E040F6050064
:1018E80000F0F2FD40F6050000F010FE3FE040F683
:1018F800011000F0E9FD40F6011000F007FE36E0A7
:101908004FF4116000F0E0FD4FF4116000F0FEFDAF
:101918002DE040F6111000F0D7FD40F6111000F050
:10192800F5FD24E040F6121000F0CEFD40F612104E
:1019380000F0ECFD1BE040F6060000F0C5FD40F6A7
:10194800060000F0E3FD12E040F6070000F0BCFDE1
:1019580040F6070000F0DAFD09E040F6080000F064
:10196800B3FD40F6080000F0D1FD00E000BF00BF65
:101978000837BD4680BD00BF004801400044014013
:1019880000400140000401400000014000200040E8
:10199800001C0040001800400014004000100040E7
:1019A800000C0040000800400004004080B483B0F0
:1019B80000AF786039603B681A887B6828331A6002
:1019C8007B68314A934213D07B68B3F1804F0FD0C4
:1019D8007B682E4A93420BD07B682D4A934207D0EE
:1019E8007B682C4A934203D07B682B4A934215D1DB
:1019F8007B681A687B6822F070021A607B681A6834
:101A08003B685B8819467B680A431A607B681A68DA
:101A18003B689B8819467B680A431A607B682C33AD
:101A28001A463B689B6813607B681C4A934211D036
:101A38007B681B4A93420DD07B681A687B6822F446
:101A480040721A607B681A683B689B8919467B68F4
:101A58000A431A607B680C4A934203D07B680E4A9B
:101A6800934204D13B689A7B7B6830331A607B6869
:101A780014331B687A68143243F00103136000BF03
:101A88000C37BD4680BC7047000001400004004090
:101A980000080040000C0040000401400010004015
:101AA8000014004080B483B000AF78607B681A6887
:101AB8007B6842F001021A6000BF0C37BD4680BC4B
:101AC800704780B483B000AF78607B681A687B6821
:101AD80042F080021A6000BF0C37BD4680BC7047D8
:101AE80080B483B000AF786039607B6824331A46CD
:101AF8003B68136000BF0C37BD4680BC704780B49C
:101B080083B000AF786039607B680C331A687B68F3
:101B18000C3319463B6813430B6000BF0C37BD46B6
:101B280080BC704780B485B000AF786039607B684E
:101B38000C331B683A681340FB607B6810331A68E3
:101B48003B681340002B04D0FB68002B01D0012315
:101B580000E0002318461437BD4680BC704780B4A7
:101B680083B000AF786039607B6810331A683B68CF
:101B7800DB437968103113400B6000BF0C37BD465A
:101B880080BC704780B483B000AF78600B46FB70B0
:101B9800FB78012B08D17B6844331B687A68443290
:101BA80043F40043136007E07B6844331B687A689A
:101BB800443223F40043136000BF0C37BD4680BC99
:101BC8007047000080B485B000AFF8600B467A60BB
:101BD8007B817B89032B00F2CD8101A252F823F08F
:101BE800F91B0208F11C0208F51D0208EF1E020885
:101BF800FB6820331B68FA68203223F00103136066
:101C0800FB6820331A687B681B68F9682031134326
:101C18000B60FB6820331B68FA68203223F002034C
:101C28001360FB6820331B687A68D2881146FA680B
:101C380020320B431360FB686A4A934203D0FB6867
:101C4800694A934247D1FB6820331B68FA682032FF
:101C580023F004031360FB6820331B687A689288BA
:101C68001146FA6820320B431360FB6820331B6867
:101C7800FA68203223F008031360FB6820331B68DE
:101C88007A6812891146FA6820320B431360FB68A0
:101C980004331B68FA68043223F480731360FB680A
:101CA80004331B687A6852891146FA6804320B4378
:101CB8001360FB6804331B68FA68043223F400736A
:101CC8001360FB6804331B687A6892891146FA68C6
:101CD80004320B431360FB6818331B68FA68183228
:101CE80023F00303136046E1FB6820331B68FA689E
:101CF800203223F010031360FB6820331A687B68D6
:101D08001B681B01F968203113430B60FB68203303
:101D18001B68FA68203223F020031360FB68203325
:101D28001A687B68DB881B01F968203113430B6054
:101D3800FB682C4A934203D0FB682B4A934247D155
:101D4800FB6820331B68FA68203223F040031360D5
:101D5800FB6820331A687B689B881B01F96820316F
:101D680013430B60FB6820331B68FA68203223F0AA
:101D780080031360FB6820331A687B681B891B018A
:101D8800F968203113430B60FB6804331B68FA6859
:101D9800043223F480631360FB6804331A687B6899
:101DA8005B899B00F968043113430B60FB680433BB
:101DB8001B68FA68043223F400631360FB68043379
:101DC8001A687B689B899B00F968043113430B6090
:101DD800FB6818331B68FA68183223F440731360E1
:101DE800C9E000BF0000014000040140FB68203347
:101DF8001B68FA68203223F480731360FB68203371
:101E08001A687B681B681B02F968203113430B6052
:101E1800FB6820331B68FA68203223F400731360D0
:101E2800FB6820331A687B68DB881B02F96820315D
:101E380013430B60FB68524A934203D0FB68514A34
:101E4800934247D1FB6820331B68FA68203223F499
:101E580080631360FB6820331A687B689B881B02C9
:101E6800F968203113430B60FB6820331B68FA685C
:101E7800203223F400631360FB6820331A687B6800
:101E88001B891B02F968203113430B60FB6804337C
:101E98001B68FA68043223F480531360FB68043328
:101EA8001A687B685B891B01F968043113430B606E
:101EB800FB6804331B68FA68043223F40053136088
:101EC800FB6804331A687B689B891B01F968043135
:101ED80013430B60FB681C331B68FA681C3223F041
:101EE8000303136047E0FB6820331B68FA6820325D
:101EF80023F480531360FB6820331A687B681B68DF
:101F08001B03F968203113430B60FB6820331B68FF
:101F1800FA68203223F400531360FB6820331A68F0
:101F28007B68DB881B03F968203113430B60FB686F
:101F3800134A934203D0FB68124A934211D1FB68BB
:101F480004331B68FA68043223F480431360FB6887
:101F580004331A687B685B899B01F9680431134371
:101F68000B60FB681C331B68FA681C3223F440734F
:101F7800136000E000BF00BF1437BD4680BC704747
:101F8800000001400004014080B483B000AF7860D5
:101F98000B467B8013463B807B88032B50D801A2DD
:101FA80052F823F0BD1F0208DF1F020803200208B1
:101FB800252002087B6818331B687A68183223F0DA
:101FC800700313607B6818331A683B887968183186
:101FD80013430B6035E07B6818331B687A68183246
:101FE80023F4E04313607B6818331A683B881B02AC
:101FF8007968183113430B6023E07B681C331B6836
:102008007A681C3223F0700313607B681C331A68EB
:102018003B8879681C3113430B6012E07B681C33E2
:102028001B687A681C3223F4E04313607B681C3316
:102038001A683B881B0279681C3113430B6000E067
:1020480000BF00BF0C37BD4680BC704780B485B068
:1020580000AFF8600B467A607B817B89032B23D81D
:1020680001A252F823F000BF812002088D20020847
:1020780099200208A5200208FB6834331A467B68B9
:10208800136012E0FB6838331A467B6813600CE073
:10209800FB683C331A467B68136006E0FB684033F4
:1020A8001A467B68136000E000BF00BF1437BD46C6
:1020B80080BC704780B483B000AF78600B467B80EB
:1020C80013463B807B88032B50D801A252F823F09B
:1020D800E92002080B2102082F21020851210208D9
:1020E8007B6818331B687A68183223F0080313607A
:1020F8007B6818331A683B887968183113430B607A
:1021080035E07B6818331B687A68183223F400635B
:1021180013607B6818331A683B881B02796818318A
:1021280013430B6023E07B681C331B687A681C32FE
:1021380023F0080313607B681C331A683B887968AE
:102148001C3113430B6012E07B681C331B687A68F0
:102158001C3223F4006313607B681C331A683B88C5
:102168001B0279681C3113430B6000E000BF00BFFD
:102178000C37BD4680BC704780B485B000AFF860AE
:102188000B467A607B817B89032B53D801A252F8D6
:1021980023F000BFAD210208D1210208F521020871
:1021A80019220208FB6820331B68FA68203223F0E2
:1021B80001031360FB6820331A68FB682033194653
:1021C8007B6813430B6036E0FB6820331B68FA68B2
:1021D800203223F010031360FB6820331A687B68F1
:1021E8001B01F968203113430B6024E0FB6820339E
:1021F8001B68FA68203223F480731360FB6820336D
:102208001A687B681B02F968203113430B6012E0DF
:10221800FB6820331B68FA68203223F4805313606C
:10222800FB6820331A687B681B03F9682031134365
:102238000B6000E000BF00BF1437BD4680BC70478C
:1022480080B485B000AF03460A46FB711346BB71E4
:10225800BB7903F003039B000F2202FA03F3DB436D
:10226800FB60FA79BB7903F003039B0002FA03F3DE
:10227800BB60BB799B08DBB2032B3FD801A252F8A5
:1022880023F000BF9D220208B7220208D1220208CB
:10229800EB2202081C4B1A681B49FB6813400B60B1
:1022A800194B1A681849BB6813430B6027E0174B92
:1022B8001A681649FB6813400B60144B1A681349D7
:1022C800BB6813430B601AE0114B1A681049FB688E
:1022D80013400B600E4B1A680D49BB6813430B6023
:1022E8000DE00C4B1A680B49FB6813400B60094B57
:1022F8001A680849BB6813430B6000E000BF00BFC1
:102308001437BD4680BC7047083801400C3801407E
:10231800103801401438014080B485B000AF7860AF
:1023280039600023FB607B681B68FB60FB6803F473
:102338004153FB603B681B68FA681343FB603B68CA
:102348005B68FA681343FB603B689B68FA68134351
:10235800FB603B68DB68FA681343FB603B681B69FA
:10236800FA681343FB603B685B69FA681343FB60D8
:102378003B689B69FA681343FB607B68FA681A60DC
:102388007B681C331B687A681C3223F40063136073
:1023980000BF1437BD4680BC704780B483B000AF1F
:1023A80078607B681A687B6842F040021A6000BF58
:1023B8000C37BD4680BC704780B483B000AF7860EE
:1023C8000B46FB70FB78002B08D17B6804331B6835
:1023D8007A68043243F00203136007E07B68043331
:1023E8001B687A68043243F00103136000BF0C379E
:1023F800BD4680BC704780B483B000AF78600B46A0
:102408007B807B680C331A467B88136000BF0C37CF
:10241800BD4680BC704780B483B000AF78607B68ED
:102428000C331B689BB218460C37BD4680BC7047FE
:1024380080B483B000AF786039607B6808331A686D
:102448003B681340002B01D0012300E0002318460D
:102458000C37BD4680BC704780B483B000AF78604D
:102468000B467B807B681A687B6842F400521A60CE
:102478007B6810331A467B88136000BF0C37BD4653
:1024880080BC704780B483B000AF0346FB80FB88F4
:102498009B099BB203F1804303F50E331968FB884F
:1024A80003F01F0301229A40FB889B099BB203F1AA
:1024B800804303F50E33184641EA0203036000BF68
:1024C8000C37BD4680BC704780B483B000AF03466C
:1024D800FB80FB889B099BB203F1804303F50E3315
:1024E8001968FB8803F01F0301229A40FB889B09A7
:1024F8009BB203F1804303F50E33184641EA020309
:10250800036000BF0C37BD4680BC704780B483B001
:1025180000AF0346FB80FB889B099BB203F1804315
:1025280003F50E331968FB8803F01F03012202FA32
:1025380003F3DA43FB889B099BB203F1804303F55D
:102548000E33184601EA0203036000BF0C37BD468C
:1025580080BC704780B483B000AF78607B686FF050
:102568008072934206D1094B1A6808497B68134068
:102578000B6005E0054B1A6804497B6813430B6040
:1025880000BF0C37BD4680BC704700BF8C38024086
:1025980090B498B000AF0346FB710023FB65594B1C
:1025A80007F11C040FCB84E80F00574A07F1140306
:1025B80092E8030083E80300534A07F10C0392E80A
:1025C800030083E80300514B1B689B0803F00303D7
:1025D8003B653B6D022B0FD03B6D022B39D83B6D11
:1025E800002B03D03B6D012B03D032E0484BBB6579
:1025F80032E0484BBB652FE0474B1B6803F03F03B5
:10260800FB64454B1B689B09C3F30803BB64424B3F
:102618001B681B0C03F0030301335B007B643E4B18
:102628001B6803F480033B643B6CB3F5800F02D155
:10263800384B7B6501E0364B7B657A6DFB6CB2FBF2
:10264800F3F3BA6C02FB03F27B6CB2FBF3F3BB65EA
:1026580002E02F4BBB6500BF2C4B1B681B0903F026
:102668000F03FB6307F11C02FB6B13441B78BB636E
:10267800BA6DBB6B22FA03F37B63244B1B689B0A7E
:1026880003F00703FB6307F11402FB6B13441B7889
:10269800BB637A6BBB6B22FA03F33B631B4B1B6870
:1026A8005B0B03F00703FB6307F10C02FB6B13449E
:1026B8001B78BB637A6BBB6B22FA03F3FB62FB7973
:1026C800032B17D801A252F823F000BFE526020811
:1026D800EB260208F1260208F7260208BB6DFB6507
:1026E80009E07B6BFB6506E03B6BFB6503E0FB6A7F
:1026F800FB6500E000BFFB6D18466037BD4690BC27
:10270800704700BF08820208188202080838024091
:102718000024F40040787D010438024080B483B07E
:1027280000AF7860054A7B6843F0BF6343F4003329
:10273800D36000BF0C37BD4680BC704700ED00E099
:1027480080B487B000AF0346FB710B46BB711346DC
:102758007B710023FB6000237B6100233B61354BC9
:10276800DB6803F4E063B3F5E06F04D100237B6119
:1027780004233B612EE02F4BDB6803F4E063B3F5E1
:10278800C06F04D101237B6103233B6122E0294B05
:10279800DB6803F4E063B3F5A06F04D102237B6127
:1027A80002233B6116E0234BDB6803F4E063B3F5D7
:1027B800806F04D103237B6101233B610AE01D4B39
:1027C800DB6803F4E063B3F5407F03D104237B6146
:1027D80000233B61BA797B69C3F1040302FA03F36E
:1027E800FB607A793B69C3F104030F2121FA03F3F3
:1027F8001340FA681343FB60FB681B01FB600E4A39
:10280800FB79F968C9B213440A4683F80023FB79B7
:1028180003F01F030849FA795209D2B2104601227F
:1028280002FA03F341F8203000BF1C37BD4680BCD4
:10283800704700BF00ED00E000E100E080B483B025
:1028480000AF786039603B6823F0604323F07F0372
:1028580004497A6813438B6000BF0C37BD4680BCBF
:10286800704700BF00ED00E080B483B000AF78602F
:102878007B68042B06D1094B1B68084A43F0040304
:10288800136005E0054B1B68044A23F0040313603A
:1028980000BF0C37BD4680BC704700BF10E000E0A9
:1028A80080B489B000AFF860B9607A603B60FB68BB
:1028B8001B68BB61FB680C331B687B610023FB83CF
:1028C8002BE0FB8B01229A403B681340002B21D060
:1028D800FB8B5B00032202FA03F3DB43BA69134064
:1028E800BB61FB8B5B00BA6802FA03F3BA69134356
:1028F800BB61FB8B5B00032202FA03F3DB437A69BB
:1029080013407B61FB8B5B007A6802FA03F37A69F8
:1029180013437B61FB8B0133FB83FB8B0F2BD0D9DC
:10292800FB68BA691A60FB680C331A467B69136046
:1029380000BF2437BD4680BC704780B487B000AF65
:10294800F8607A603B600B46FB72FB7A012B09D179
:10295800FB6804331A68FB68043319463B68134361
:102968000B6008E0FB6804331A683B68DB43F968CE
:10297800043113400B60FB6808331B683B6100237C
:10298800FB821AE0FB8A01229A403B681340002B25
:1029980010D0FB8A5B00032202FA03F3DB433A6997
:1029A80013403B61FB8A5B007A6802FA03F33A69D9
:1029B80013433B61FB8A0133FB82FB8A0F2BE1D96E
:1029C800FB6808331A463B69136000BF1C37BD46D5
:1029D80080BC704780B483B000AF786039607B6892
:1029E80018331A463B68136000BF0C37BD4680BCDD
:1029F800704780B483B000AF786039607B68283353
:102A08001A463B68136000BF0C37BD4680BC704750
:102A180080B489B000AFF860B9607A60FB68203391
:102A28001B68BB61FB6824331B687B610023FB8345
:102A38001AE0FB8B01229A407B681340002B10D0D0
:102A4800FB8B9B000F2202FA03F3DB43BA691340A6
:102A5800BB61FB8B9B00BA6802FA03F3BA691343A4
:102A6800BB61FB8B0133FB83FB8B072BE1D908236D
:102A7800FB831CE0FB8B01229A407B681340002BF0
:102A880012D0FB8B083B9B000F2202FA03F3DB43B7
:102A98007A6913407B61FB8B083B9B00BA6802FA9A
:102AA80003F37A6913437B61FB8B0133FB83FB8B55
:102AB8000F2BDFD9FB6820331A46BB691360FB680C
:102AC80024331A467B69136000BF2437BD4680BC97
:102AD8007047000080B483B000AF78600B46FB708D
:102AE8001346BB70344B1A687B68DB43324913408A
:102AF8000B60324B1A687B68DB43304913400B602C
:102B08002F4B1A687B68DB432D4913400B602D4B14
:102B18001A687B68DB432B4913400B60FB78002B5A
:102B280002D0012B07D00DE0234B1A6822497B689D
:102B380013430B6006E0214B1A6820497B68134356
:102B48000B6000BFBB78022B22D0022B2DDC002BA0
:102B580002D0012B0ED028E0194B1A6818497B685F
:102B680013430B60174B1A687B68DB431549134006
:102B78000B601BE0124B1A687B68DB43104913405B
:102B88000B60104B1A680F497B6813430B600DE00C
:102B98000B4B1A680A497B6813430B60094B1A6888
:102BA80008497B6813430B6000E000BF00BF0C3787
:102BB800BD4680BC704700BF003C0140043C01405A
:102BC800083C01400C3C014080B483B000AF786001
:102BD800034A7B68136000BF0C37BD4680BC704752
:102BE800143C014080B483B000AF7860054B1A688C
:102BF80004497B6813430B6000BF0C37BD4680BC9B
:102C0800704700BF103C014080B483B000AF7860CB
:102C18000B46FB70FA7813465B001344DB001A4638
:102C28007B68134410331968FA7813465B00134421
:102C3800DB001A467B68134410331A4621F001035F
:102C48001360FA7813465B001344DB001A467B686E
:102C5800134410331A4600231360FA7813465B00B6
:102C68001344DB001A467B68134414331A460023C6
:102C78001360FA7813465B001344DB001A467B683E
:102C8800134418331A4600231360FA7813465B007E
:102C98001344DB001A467B6813441C331A4600238E
:102CA8001360FA7813465B001344DB001A467B680E
:102CB800134420331A4600231360FA7813465B0046
:102CC8001344DB001A467B68134424331A46002356
:102CD8001360FB78032B17D87B6808331968FA78D8
:102CE80013465B0013445B001A46FB785B08DBB2B3
:102CF80003F001039B0013443D2202FA03F37A68B0
:102D080008320B43136019E0FB78043BFB707B68C7
:102D18000C331968FA7813465B0013445B001A46B3
:102D2800FB785B08DBB203F001039B0013443D22F0
:102D380002FA03F37A680C320B43136000BF0C37B6
:102D4800BD4680BC704782B080B485B000AF786063
:102D580007F1180080E80C000B46FB70FA78134660
:102D68005B001344DB001A467B681344243319685C
:102D7800FA7813465B001344DB001A467B68134459
:102D880024331A4621F004031360FA7813465B00D3
:102D98001344DB001A467B68134418331A46BB6990
:102DA8001360FA7813465B001344DB001A467B680D
:102DB80013441C331A463B6A1360FA7813465B00C7
:102DC8001344DB001A467B68134414331A467B6BA2
:102DD8001360FA7813465B001344DB001A467B68DD
:102DE800134410331B68FB60FB6823F45E3323F045
:102DF800C003FB60BA6ABB6A9B001A43BB6B1A43E9
:102E08003B6B1343FA681343FB60FA7813465B0085
:102E18001344DB001A467B68134410331A46FB68D8
:102E28001360FB69002B17D1FA7813465B00134433
:102E3800DB001A467B68134410331968FA78134686
:102E48005B001344DB001A467B68134410331A46B0
:102E580041F40073136031E0FB69012B17D1FA7854
:102E680013465B001344DB001A467B681344103397
:102E78001968FA7813465B001344DB001A467B682E
:102E8800134410331A4621F40073136016E0FA78DD
:102E980013465B001344DB001A467B681344103367
:102EA8001968FA7813465B001344DB001A467B68FE
:102EB800134410331A4641F4004313607B6A002B15
:102EC80017D1FA7813465B001344DB001A467B6877
:102ED800134410331968FA7813465B001344DB0077
:102EE8001A467B68134410331A4641F48063136012
:102EF80016E0FA7813465B001344DB001A467B6839
:102F0800134410331968FA7813465B001344DB0046
:102F18001A467B68134410331A4621F48063136001
:102F2800FB6A002B17D1FA7813465B001344DB00C9
:102F38001A467B68134410331968FA7813465B0005
:102F48001344DB001A467B68134410331A4641F4D5
:102F58008073136016E0FA7813465B001344DB00B5
:102F68001A467B68134410331968FA7813465B00D5
:102F78001344DB001A467B68134410331A4621F4C5
:102F88008073136000BF1437BD4680BC02B0704721
:102F980080B489B000AFF8600B467A60FB720023FA
:102FA800FB610023BB61FB7AFB75FB7A032B00F204
:102FB800F3807B68013B1F2B00F2E98101A252F8E4
:102FC80023F000BF4D3002089733020897330208F8
:102FD80091300208973302089733020897330208A2
:102FE800D53002089733020897330208973302084E
:102FF8009733020897330208973302089733020879
:1030080019310208973302089733020897330208E8
:103018009733020897330208973302089733020858
:103028009733020897330208973302089733020848
:103038009733020897330208973302089733020838
:103048005D310208FB681968FA7A13465B0013447D
:103058005B001A46FB7A5B08DBB203F001039B00B6
:1030680013447A6802FA03F30B40BB61FA7A1346F9
:103078005B001344DB001A46FB68134424331B68C7
:1030880003F08003FB6185E1FB681968FA7A13464F
:103098005B0013445B001A46FB7A5B08DBB203F063
:1030A80001039B0013447A6802FA03F30B40BB61E7
:1030B800FA7A13465B001344DB001A46FB68134494
:1030C80010331B6803F00203FB6163E1FB681968B6
:1030D800FA7A13465B0013445B001A46FB7A5B08D6
:1030E800DBB203F001039B0013447A6802FA03F38E
:1030F8000B40BB61FA7A13465B001344DB001A46A7
:10310800FB68134410331B6803F00403FB6141E1BF
:10311800FB681968FA7A13465B0013445B001A4689
:10312800FB7A5B08DBB203F001039B0013447A6867
:1031380002FA03F30B40BB61FA7A13465B001344AF
:10314800DB001A46FB68134410331B6803F00803BE
:10315800FB611FE1FB681968FA7A13465B001344A8
:103168005B001A46FB7A5B08DBB203F001039B00A5
:1031780013447A6802FA03F30B40BB61FA7A1346E8
:103188005B001344DB001A46FB68134410331B68CA
:1031980003F01003FB61FDE0FB7D043BFB757B68DE
:1031A800013B1F2B00F2F58001A252F823F000BF6B
:1031B800393202089B3302089B3302087F32020827
:1031C8009B3302089B3302089B330208C53202086E
:1031D8009B3302089B3302089B3302089B33020887
:1031E8009B3302089B3302089B3302080B33020807
:1031F8009B3302089B3302089B3302089B33020867
:103208009B3302089B3302089B3302089B33020856
:103218009B3302089B3302089B3302089B33020846
:103228009B3302089B3302089B3302085133020880
:10323800FB6804331968FA7D13465B0013445B008E
:103248001A46FB7D5B08DBB203F001039B001344C5
:103258007A6802FA03F30B40BB61FA7A13465B0003
:103268001344DB001A46FB68134424331B6803F03D
:103278008003FB618EE0FB6804331968FA7D13460E
:103288005B0013445B001A46FB7D5B08DBB203F06E
:1032980001039B0013447A6802FA03F30B40BB61F5
:1032A800FA7A13465B001344DB001A46FB681344A2
:1032B80010331B6803F00203FB616BE0FB68043307
:1032C8001968FA7D13465B0013445B001A46FB7DC0
:1032D8005B08DBB203F001039B0013447A6802FA2F
:1032E80003F30B40BB61FA7A13465B001344DB001F
:1032F8001A46FB68134410331B6803F00403FB6190
:1033080048E0FB6804331968FA7D13465B001344F0
:103318005B001A46FB7D5B08DBB203F001039B00F0
:1033280013447A6802FA03F30B40BB61FA7A134636
:103338005B001344DB001A46FB68134410331B6818
:1033480003F00803FB6125E0FB6804331968FA7D84
:1033580013465B0013445B001A46FB7D5B08DBB237
:1033680003F001039B0013447A6802FA03F30B404D
:10337800BB61FA7A13465B001344DB001A46FB680C
:10338800134410331B6803F01003FB6102E000BF15
:1033980000E000BFBB69002B04D0FB69002B01D003
:1033A800012300E0002318462437BD4680BC70473F
:1033B80080B485B000AFF8600B467A60FB72FB7A88
:1033C800032B17D8FB6808331968FA7A13465B0091
:1033D80013445B001A46FB7A5B08DBB203F0010377
:1033E8009B0013447A6802FA03F3FA6808320B4325
:1033F800136019E0FB7A043BFB72FB680C33196815
:10340800FA7A13465B0013445B001A46FB7A5B08A2
:10341800DBB203F001039B0013447A6802FA03F35A
:10342800FA680C320B43136000BF1437BD4680BCEA
:10343800704780B485B000AFF8600B467A60FB72C5
:103448007B68802B17D0FA7A13465B001344DB00A5
:103458001A46FB68134410331968FA7A13465B005E
:103468001344DB001A46FB68134410331A467B6882
:103478000B43136016E0FA7A13465B001344DB0033
:103488001A46FB68134424331968FA7A13465B001A
:103498001344DB001A46FB68134424331A467B683E
:1034A8000B43136000BF1437BD4680BC704780B41F
:1034B80085B000AFF8600B467A60FB727B68802BA2
:1034C80019D0FA7A13465B001344DB001A46FB68EE
:1034D8001344103318687B68D943FA7A13465B00A3
:1034E8001344DB001A46FB68134410331A4600EAFB
:1034F8000103136018E0FA7A13465B001344DB00FB
:103508001A46FB681344243318687B68D943FA7A4F
:1035180013465B001344DB001A46FB68134424334C
:103528001A4600EA0103136000BF1437BD4680BC89
:10353800704780B483B000AF78600B46FB70FA78B0
:1035480013465B001344DB001A467B6813441433AC
:103558001B6818460C37BD4680BC704780B483B0E2
:1035680000AF78600B46FB70FA7813465B00134493
:10357800DB001A467B68134410331968FA7813463F
:103588005B001344DB001A467B68134410331A4669
:1035980041F00103136000BF0C37BD4680BC704783
:1035A80080B483B000AF78600B46FB70FA7813469E
:1035B8005B001344DB001A467B6813441033196818
:1035C800FA7813465B001344DB001A467B68134401
:1035D80010331A4621F00103136000BF0C37BD46B3
:1035E80080BC704780B485B000AF78600B46FB7034
:1035F8001346BB70FA7813465B001344DB001A4687
:103608007B68134410331B68FB60FB6823F060631E
:10361800FB60BB785B06FA681343FB60FA781346D5
:103628005B001344DB001A467B68134410331A46C8
:10363800FB68136000BF1437BD4680BC70470000AC
:1036480080B582B000AF0023FB716FF00400FFF774
:103658000BF9C823FB71FB79DB08DAB2084B1A7047
:10366800074B1B789BB21A465201D21A9200134498
:10367800DB009AB2034B1A8000BF0837BD4680BDF5
:10368800AC060020AE06002080B485B000AF03462B
:10369800FB80FB88154A12881146154A01FB03F383
:1036A8005360134B00229A60114B1B68104A43F079
:1036B800010313600E4B1B68FB60FB6803F00103FA
:1036C800002B04D0FB6803F48033002BF2D0084BA6
:1036D8001B68074A23F001031360054B00229A6018
:1036E80000BF1437BD4680BC704700BFAE0600203F
:1036F80010E000E080B400AF00BFBD4680BC70475A
:1037080080B400AFFEE780B400AFFEE780B400AF3E
:10371800FEE780B400AFFEE780B400AF00BFBD464F
:1037280080BC704780B400AF00BFBD4680BC704706
:1037380080B400AF00BFBD4680BC704780B400AF06
:1037480000BFBD4680BC704780B500AF40F6024060
:10375800FEF798FE8023002201210748FFF7A0F812
:103768008023032200210448FFF7E7F8802102485C
:10377800FFF730F900BF80BD0008024080B582B075
:1037880000AF0346FB71FB79002B04D1802106486A
:10379800FFF720F903E080210348FFF72AF900BF6B
:1037A8000837BD4680BD00BF0008024080B584B020
:1037B80000AF0023FB7301237B607B6883F31088D1
:1037C80000BF4FF400314FF00060FFF737F84FF4B7
:1037D800A060FEF7A3FFFFF733FFFFF7B5FF02F086
:1037E800B5FB4FF4E13002F099F801F079FC00F0F4
:1037F80027F80023BB60BB6883F3108800BF0E491D
:10380800FA2002F0DFFB0D4801F0FCFF0A4802F045
:10381800EDFB0346002BF6D00749FA2002F0D2FB55
:10382800FB7B002B0CBF01230023DBB2FB73FB7B6C
:103838001846FFF7A3FFE6E7240F0020D006002074
:1038480080B500AF02F06CFD00BF80BD90B585B0BB
:1038580002AF0023FB7100F083FA00F027FBAB4BAB
:103868000093AB4BAB4A0121032001F02FF9AA4B7F
:10387800D3F8E830A84AC2F8F430A74BD3F8EC30B4
:10388800A54AC2F8F830A44BD3F8F030A24AC2F8DF
:10389800FC3001F0CBF9A149A14800F0DBFB02F0B4
:1038A8001FFFA04B0193A04B0093A04B01220321C3
:1038B800032001F04DF9984B1B78032B00F221826D
:1038C80001A252F823F000BFE138020819390208B2
:1038D8002D3902086D3902088F4BD3F8E8304FF0C4
:1038E80000011846FDF70CFB0346002B00D00DE243
:1038F800894BD3F80C314FF000011846FDF700FB57
:103908000346002B00D001E2834B01221A70FDE12F
:1039180000F0FAFA0346002B00F0F5817E4B0222F4
:103928001A70F0E17C4B1B7D002B00F0EE817A4B86
:1039380000221A7579497A4800F08CFB7C4977484F
:1039480000F026FC744B4FF000025A64724B4FF0A3
:103958000002DA64704B4FF000029A646E4B032247
:103968001A70D2E16C4BD3F894306B4AD2F8A42089
:1039780011461846FDF728F803461A46664BD3F851
:10398800843019461046FDF71DF803461A46624B67
:10399800C3F8D420604BD3F898305F4AD2F8A820F7
:1039A80011461846FDF710F803461A465A4BD3F845
:1039B800883019461046FDF705F803461A46564B57
:1039C800C3F8D0200023FB7127E0FB79524A343337
:1039D80052F8233057491846FDF7BAFA0346002B28
:1039E80006D0FB794C4A3433524942F8231011E08F
:1039F800FB79494A343352F823304F491846FDF7CA
:103A080089FA0346002B05D0FB79434A34334A49E7
:103A180042F82310FB790133FB71FB79022BD4D9CF
:103A2800464B0193464B0093464B0122032103204A
:103A380001F08EF8444B0193404B00933B4B01221D
:103A48000321032001F084F8334B9B684FF00001F9
:103A58001846FDF755FA0346002B1ED02E4BD3F817
:103A680094302D4AD2F8A42011461846FCF7ACFF32
:103A780003461A46284BD3F85C3119461046FCF722
:103A8800A1FF03461A46244BC3F85021224BD3F812
:103A98009432214AC2F8F4320FE01F4B9B684FF072
:103AA8007E511846FDF72CFA0346002B05D01A4B19
:103AB800D3F88832184AC2F8F432174BDB684FF053
:103AC80000011846FDF71CFA0346002B3ED0124BA6
:103AD800D3F89830104AD2F8A82011461846FCF7B7
:103AE80073FF03461A460C4BD3F854311946104657
:103AF800FCF768FF03461A46074BC3F84821064BF4
:103B0800D3F88C32044AC2F8A4322FE024010020F2
:103B1800180100200C010020000000207000002087
:103B2800F4000020C0010020300100205C020020C9
:103B3800C0000020B81E853EB81E85BEDC000020EF
:103B4800D000002014020020480100207D4BDB68D3
:103B58004FF07E511846FDF7D3F90346002B05D0E8
:103B6800784BD3F88032774AC2F8A432754B1B6978
:103B78004FF000011846FDF7C3F90346002B1ED08D
:103B8800704BD3F89C306F4AD2F8AC2011461846D7
:103B9800FCF71AFF03461A466A4BD3F85831194600
:103BA8001046FCF70FFF03461A46664BC3F84C2134
:103BB800644BD3F89032634AC2F8CC320FE0614BC1
:103BC8001B694FF07E511846FDF79AF90346002B02
:103BD80005D05C4BD3F884325A4AC2F8CC32594BE0
:103BE800D3F8C431574AD2F8DC2111461846FCF7FD
:103BF800EBFE03461A46534BC3F8D021514BD3F87A
:103C0800C831504AC2F8D4314E4BD3F8C0314D4A6E
:103C1800C2F8CC314C4B00934C4B4D4A0121032048
:103C280000F012FF0023FB7167E0FB79454A5E3321
:103C380052F82320FB79434954339B000B445B68BB
:103C480019461046FCF7BEFE03461846FA79134695
:103C58009B001344DB0003F528733A4A13440433EA
:103C6800FC79194601F006F90246364904F16A035F
:103C780041F82320FB79334A523352F82300FB7969
:103C8800304A6A3352F82310FB792E4A6C339B0072
:103C980013445B68FC791A4600F09AF902462949F0
:103CA80004F16A0341F82320FB79264A6A3352F863
:103CB8002320FB79234972339B000B445B68194628
:103CC8001046FCF77FFE03461846FA7913469B0018
:103CD8001344DB0003F546731A4A13440433FC7992
:103CE800194601F0C7F80246164904F178039B000B
:103CF8000B445A60FB790133FB71FB79022B94D991
:103D080004E000BF02E000BF00E000BF00F018F9C7
:103D18000C4B4FF00002C3F88C200E490E4800F0FF
:103D280008FB084B5B7D002B04D00C49084800F0C9
:103D3800BCFD03E00949064800F02CFE00BF0C3723
:103D4800BD4690BD000000207801002048010020F9
:103D58005401002014020020800000205C02002092
:103D680090B583B000AF0023FB714A4BD3F8803085
:103D7800494AD2F8402111461846FCF72DFF034660
:103D88001A46454BC3F85821444BD3F88030424A71
:103D9800D2F83C2111461846FCF71EFF03461A4686
:103DA8003D4BC3F854213E4BD3F880303A4AD2F801
:103DB800442111461846FCF70FFF03461A46364BB6
:103DC800C3F85C210023FB715BE0FB79324A543372
:103DD8009B0013445A68FB792F49583351F8233014
:103DE800FC7919461046FCF7EDFD034619462A4AA8
:103DF80004F154039B0013445960FB79264A543359
:103E08009B0013445B6827491846FDF783F803466F
:103E1800002B13D0FB79204A54339B0013445B6872
:103E2800FC7921491846FCF7CFFD034619461A4A82
:103E380004F154039B00134459601FE0FB79164AB0
:103E480054339B0013445B6817491846FDF780F804
:103E58000346002B12D0FB790F4A54339B001344BE
:103E68005B68FC7910491846FCF7ACFD0346194617
:103E7800094A04F154039B0013445960FB79013348
:103E8800FB71FB79022BA0D900BF00BF0C37BD46E0
:103E980090BD00BF2404002000000020D0040020B2
:103EA8007C050020DB0FC9C0DB0FC94080B400AF20
:103EB800134B1B6A134AC2F80C31114B9B6A114A07
:103EC800C2F810310E4B5B6A83F000430D4AC2F80A
:103ED80014310B4B1B6983F000430A4AC2F8E830DF
:103EE800074B9B6983F00043064AC2F8EC30044B49
:103EF8005B69044AC2F8F03000BFBD4680BC704719
:103F0800E80E00200000002080B400AF094B1B7EA3
:103F1800002B09D0084B1B7E002B05D0074B1B7EBE
:103F2800002B01D0012300E000231846BD4680BCC9
:103F3800704700BF24040020D00400207C05002026
:103F480080B500AF1E4B01221A761E4B01221A764D
:103F58001D4B01221A761D4BD3F8E8311B4AD2F8C3
:103F6800402111461846FCF737FE03461A46144B03
:103F7800DA67164BD3F8E431144AD2F83C211146DB
:103F88001846FCF729FE03461A460E4BDA670F4B14
:103F9800D3F8EC310D4AD2F8442111461846FCF703
:103FA8001BFE03461A46084BDA67054802F01CFA5E
:103FB800044802F019FA044802F016FA00BF80BD5E
:103FC80024040020D00400207C05002000000020EC
:103FD80080B586B000AFF860B9607A604FF0000332
:103FE8007B614FF00001F868FCF794FF0346002B53
:103FF80003D0FB6883F00043FB60FB681946184652
:10400800FCF7E2FC034679681846FCF7E5FD034631
:10401800184602F091FE78617969B868FCF798FF54
:104028000346002B02D07B69BB600DE07B6983F0FF
:1040380000431946B868FCF76DFF0346002B03D010
:104048007B6983F00043BB60BB6818461837BD46E0
:1040580080BD000090B587B000AF786039604FF040
:1040680000037B614FF000033B614FF00003FB60EE
:104078004FF00003BB607B681A687B681B681946B1
:104088001046FCF7A9FD03461C467B685A687B6806
:104098005B6819461046FCF79FFD03461946204603
:1040A800FCF792FC03461C467B689A687B689B6811
:1040B80019461046FCF790FD034619462046FCF7C2
:1040C80083FC0346184602F037FE034619464FF0B4
:1040D8007E50FCF735FE03467B617B681B681946FA
:1040E8007869FCF779FD03463B617B685B68194694
:1040F8007869FCF771FD0346FB607B689B6819468D
:104108007869FCF769FD0346BB603B681B78002BA8
:104118002ED11B49F868FCF71BFF0346002B07D07C
:104128003B68184A9A603B684FF000025A601EE0EC
:104138001549F868FCF7EEFE0346002B07D03B68EC
:10414800124A9A603B684FF000025A600FE0F86824
:1041580002F09EFD02463B689A603B6983F000438B
:10416800B968184602F0E6FD02463B685A6000BF8F
:104178003B684FF00002DA6000BF1C37BD4690BDB7
:1041880072F97F3FDB0FC93F72F97FBFDB0FC9BFF1
:1041980090B58DB000AF786039604FF00003FB62D6
:1041A8004FF00003BB624FF000037B624FF0000347
:1041B8003B624FF00003FB614FF00003BB614FF01F
:1041C80000037B614FF000033B614FF00003FB608D
:1041D8007B685B684FF07C511846FCF7FDFC034692
:1041E800FB627B689B684FF07C511846FCF7F4FC37
:1041F8000346BB627B68DB684FF07C511846FCF7CE
:10420800EBFC03467B62F86A02F004FD3862F86A48
:1042180002F0C4FCF861B86A02F0FCFCB861B86A44
:1042280002F0BCFC7861786A02F0F4FC3861786AC4
:1042380002F0B4FCF8607B681B78002B74D17969B4
:10424800F869FCF7C9FC0346F9681846FCF7C4FC92
:1042580003461C46B969386AFCF7BEFC034639694F
:104268001846FCF7B9FC034619462046FCF7AAFB9A
:1042780003461A463B681A60B969F869FCF7ACFC52
:104288000346F9681846FCF7A7FC03461C46396A3A
:104298007869FCF7A1FC034639691846FCF79CFCD1
:1042A800034619462046FCF78DFB03461A463B6831
:1042B8005A60396A7869FCF78FFC0346F968184632
:1042C800FCF78AFC03461C46B969F869FCF784FCCC
:1042D800034639691846FCF77FFC03461946204611
:1042E800FCF772FB03461A463B689A607969F869DD
:1042F800FCF772FC034639691846FCF76DFC034667
:104308001C46B969386AFCF767FC0346F968184621
:10431800FCF762FC034619462046FCF755FB0346AA
:104328001A463B68DA6000E000BF00BF3437BD467C
:1043380090BD90B589B000AF786039604FF0000348
:10434800FB614FF00003BB614FF000037B614FF04E
:1043580000033B614FF00003FB604FF00003BB60BC
:104368007B685B68184602F055FCF8617B685B68FF
:10437800184602F013FCB8617B689B68184602F087
:1043880049FC78617B689B68184602F007FC386135
:104398007B68DB68184602F03DFCF8607B68DB68E8
:1043A800184602F0FBFBB8607B681B78002B40F0D6
:1043B8008A80B968B869FCF70FFC03461C4679691E
:1043C800F869FCF709FC0346F9681846FCF704FC91
:1043D800034619462046FCF7F5FA03461A463B6899
:1043E8001A60F968B869FCF7F7FB03461C46F969D7
:1043F800B868FCF7F1FB034679691846FCF7ECFB53
:10440800034619462046FCF7DFFA03461A463B687E
:104418005A603B6983F00043F9691846FCF7DCFBF6
:1044280003461A463B689A603B6983F00043F96883
:104438001846FCF7D1FB03461A463B68DA60B968B0
:104448003869FCF7C9FB03461A463B681A613B68A2
:104458007A695A61F969B868FCF7BEFB03461C46DD
:104468007969B869FCF7B8FB0346F9681846FCF7A0
:10447800B3FB034619462046FCF7A6FA03461A463C
:104488003B689A61F968F869FCF7A6FB03461C4685
:10449800B968B869FCF7A0FB034679691846FCF7C8
:1044A8009BFB034619462046FCF78CFA03461A463E
:1044B8003B68DA613969B869FCF78EFB03461A462E
:1044C8003B681A6200E000BF00BF2437BD4690BDBC
:1044D80090B58DB000AF786039604FF00003FB6293
:1044E8004FF00003BB624FF000037B624FF0000304
:1044F8003B624FF00003FB614FF00003BB614FF0DC
:1045080000037B614FF000033B614FF00003FB6049
:104518003B681B78002B40F045817B689A687B6874
:10452800DB6819461046FCF757FB03461C467B68B8
:104538001A687B685B6819461046FCF74DFB034612
:1045480019462046FCF740FA034619461846FCF778
:104558003BFA0346BB619649B869FCF7F9FC034688
:10456800002B46D07B689A687B689B681946104682
:10457800FCF732FB03461C467B68DA687B68DB681D
:1045880019461046FCF728FB034619462046FCF757
:104598001BFA034619464FF07C50FCF713FA034602
:1045A800FB627B685A687B689B6819461046FCF773
:1045B80013FB03461C467B681A687B68DB68194650
:1045C8001046FCF709FB034619462046FCF7FCF9A0
:1045D8000346BB623B68774A9A603B684FF000022B
:1045E8005A60F96AB86A02F0A5FB02463B68DA60CD
:1045F800D9E07149B869FCF78DFC0346002B46D019
:104608007B689A687B689B6819461046FCF7E4FA51
:1046180003461C467B68DA687B68DB6819461046E7
:10462800FCF7DAFA034619462046FCF7CDF90346AB
:1046380019464FF07C50FCF7C5F90346FB627B68CE
:104648005A687B689B6819461046FCF7C5FA03460A
:104658001C467B681A687B68DB6819461046FCF7BD
:10466800BBFA034619462046FCF7AEF90346BB627F
:104678003B68524A9A603B684FF000025A60F96AF8
:10468800B86A02F057FB02463B68DA608BE07B6849
:104698005A687B68DB6819461046FCF79DFA0346A2
:1046A8001C467B681A687B689B6819461046FCF7AD
:1046B80093FA034619462046FCF784F903467B62C1
:1046C8007B685A687B689B6819461046FCF784FA31
:1046D80003461C467B681A687B68DB6819461046E7
:1046E800FCF77AFA034619462046FCF76BF90346AD
:1046F8003B627B685A687B685B6819461046FCF722
:104708006BFA03461C467B68DA687B68DB681946E7
:104718001046FCF761FA034619462046FCF754F99F
:10472800034619464FF07C50FCF74CF90346FB61F1
:104738007B685A687B685B6819461046FCF74CFA38
:1047480003461C467B689A687B689B681946104636
:10475800FCF742FA034619462046FCF735F90346AA
:1047680019464FF07C50FCF72DF90346FB60B869F9
:1047780002F08EFA02463B689A607B6A83F0004337
:10478800F968184602F0D6FA02463B685A603B6A56
:1047980083F00043F969184602F0CCFA02463B68F8
:1047A800DA6000E000BF00BF3437BD4690BD00BFEF
:1047B80072F97F3FDB0FC93F72F97FBFDB0FC9BFBB
:1047C80090B585B000AF786039604FF00003FB60AA
:1047D8007B681A687B681B6819461046FCF7FCF969
:1047E80003461C467B685A687B685B681946104616
:1047F800FCF7F2F9034619462046FCF7E5F80346AC
:104808001C467B689A687B689B6819461046FCF7CB
:10481800E3F9034619462046FCF7D6F803461C463A
:104828007B68DA687B68DB6819461046FCF7D4F9C0
:10483800034619462046FCF7C7F80346184602F017
:104848007BFAF860F9684FF07E50FCF779FA034676
:10485800FB607B681B68F9681846FCF7BDF90346DE
:104868001A463B681A607B685B68F9681846FCF76B
:10487800B3F903461A463B685A607B689B68F96837
:104888001846FCF7A9F903461A463B689A607B6804
:10489800DB68F9681846FCF79FF903461A463B6837
:1048A800DA6000BF1437BD4690BD80B588B000AF50
:1048B800786039604FF00003FB614FF00003BB6183
:1048C8004FF000037B614FF000033B614FF00003A2
:1048D800FB607B681B68184602F09CF9B8617B682E
:1048E8001B68184602F05AF978617B689B6818467D
:1048F80002F090F938617B689B68184602F04EF91F
:10490800F86079694FF07E50FCF71AFA0346FB61AC
:10491800F969F868FCF760F903461A463B681A60BB
:104928003B684FF000025A60F9693869FCF754F99E
:1049380003461A463B689A603B6983F000423B682D
:10494800DA603B684FF000021A613B68FA685A6106
:10495800B969F868FCF740F90346F9691846FCF7A5
:104968003BF903461A463B689A613B684FF07E5212
:10497800DA61B9693869FCF72FF90346F96918460D
:10498800FCF72AF903461A463B681A6200BF20372B
:10499800BD4680BD80B586B000AF786039604FF005
:1049A80000037B614FF000033B614FF00003FB60A5
:1049B8004FF00003BB607B681B68184602F02AF9B9
:1049C80078617B681B68184602F0E8F838617B68F4
:1049D8009B68184602F01EF9F8607B689B681846C9
:1049E80002F0DCF8B8603969B868FCF7F5F80346F6
:1049F8001A463B681A607B6983F000423B685A603C
:104A0800F9683869FCF7E8F803461A463B689A6083
:104A1800FB6883F000423B68DA603B684FF00002B5
:104A28001A613B68BA685A613B684FF000029A61A4
:104A38003B684FF07E52DA613B684FF000021A6221
:104A480000BF1837BD4680BD90B587B000AFBA60CB
:104A58007B600346FB730B46BB730023FB75002387
:104A6800BB7500237B750023FB7526E00023BB750F
:104A78001CE0FA7DBB7B12FB03F3DAB2BB7D134467
:104A88007B757B7D9B00BA68134418687B7D9B000F
:104A98007A68134419687B7D9B00BA6AD418FBF7BF
:104AA80093FF03462360BB7D0133BB75BA7DBB7B97
:104AB8009A42DED3FB7D0133FB75FA7DFB7B9A427C
:104AC800D4D300BF00BF1C37BD4690BD90B587B09A
:104AD80000AFBA607B600346FB730B46BB730023D1
:104AE800FB750023BB7500237B750023FB7526E04F
:104AF8000023BB751CE0FA7DBB7B12FB03F3DAB223
:104B0800BB7D13447B757B7D9B00BA681344186892
:104B18007B7D9B007A68134419687B7D9B00BA6A89
:104B2800D418FBF74FFF03462360BB7D0133BB75E9
:104B3800BA7DBB7B9A42DED3FB7D0133FB75FA7DE0
:104B4800FB7B9A42D4D300BF00BF1C37BD4690BD43
:104B5800B0B584B000AF3B600346FB710B46BB7138
:104B680013467B710023FB730023BB7300237B7305
:104B7800FB797A7902FB03F39B001A460021786AD5
:104B880002F004F80023FB7347E00023BB733DE009
:104B980000237B7333E0FB7B7A7902FB03F27B7B98
:104BA80013449B007A6A13441D68FB7BBA7902FBA5
:104BB80003F2BB7B13449B003A6813441868BB7B21
:104BC8007A7902FB03F27B7B13449B003A6A134415
:104BD8001B681946FCF700F803461946FB7B7A79EF
:104BE80002FB03F27B7B13449B007A6AD4182846A5
:104BF800FBF7EAFE034623607B7B01337B737A7BFA
:104C08007B799A42C7D3BB7B0133BB73BA7BBB7931
:104C18009A42BDD3FB7B0133FB73FA7BFB799A4243
:104C2800B3D300BF00BF1037BD46B0BD90B587B045
:104C380000AF4FF000037B614FF000033B614FF082
:104C48000003FB604FF00003BB60864B7B60864B24
:104C5800D3F8C43083F00043834AD2F83021114698
:104C68001846FBF7B9FF03461C467F4BD3F8C830FC
:104C78007D4AD2F8342111461846FBF7ADFF0346AA
:104C880019462046FBF79EFE03461C46764BD3F892
:104C9800CC30754AD2F8382111461846FBF79CFFEC
:104CA800034619462046FBF78DFE034619467868E9
:104CB800FBF792FF03467B616B4BD3F8C0306A4A1F
:104CC800D2F8302111461846FBF786FF03461C46EA
:104CD800654BD3F8C830644AD2F8382111461846D3
:104CE800FBF77AFF034619462046FBF76DFE03469D
:104CF8001C465D4BD3F8CC305B4AD2F834211146C0
:104D08001846FBF769FF034619462046FBF75AFE8B
:104D1800034619467868FBF75FFF03463B61524B31
:104D2800D3F8C030504AD2F8342111461846FBF760
:104D380053FF03461C464C4BD3F8C4304A4AD2F8BA
:104D4800382111461846FBF747FF03461946204607
:104D5800FBF738FE03461C46434BD3F8CC30424A97
:104D6800D2F8302111461846FBF736FF034619469C
:104D78002046FBF729FE034619467868FBF72CFF07
:104D88000346FB60384BD3F8C030374AD2F8382195
:104D980011461846FBF720FF03461C46324BD3F852
:104DA800C430314AD2F8342111461846FBF714FFB3
:104DB800034619462046FBF707FE03461C462A4BC6
:104DC800D3F8C830284AD2F8302111461846FBF7E4
:104DD80003FF034619462046FBF7F4FD0346194630
:104DE8007868FBF7F9FE0346BB601F4BD3F8C03069
:104DF80079691846FBF7E8FD03461A461A4BC3F8CB
:104E0800C020194BD3F8C43039691846FBF7DCFDCC
:104E180003461A46144BC3F8C420134BD3F8C830C2
:104E2800F9681846FBF7D0FD03461A460E4BC3F83F
:104E3800C8200D4BD3F8CC30B9681846FBF7C4FD31
:104E480003461A46084BC3F8CC2008490748FFF721
:104E5800B7FC07490548FFF73BFB00BF1C37BD46B9
:104E680090BD00BF6F12033900000020C000002071
:104E78008000002090B589B000AF786039604FF0AD
:104E88000003BB614FF000037B614FF000033B61FF
:104E98004FF00003FB614FF00003FB604FF000038D
:104EA800BB603B681B6819467868FBF795FE0346AC
:104EB800BB613B685B684FF000011846FCF720F8BF
:104EC8000346002B04D03B684FF000029A602EE0A6
:104ED8003B685B6819467868FBF77EFE03467B6192
:104EE8003B689B6819467869FBF76EFD03463B6192
:104EF8003B681B6919463869FCF72AF80346002BFA
:104F080004D03B681A693B689A6010E03B68DB682C
:104F180019463869FBF7FEFF0346002B04D03B68AF
:104F2800DA683B689A6002E03B683A699A603B68D5
:104F38005A6A3B681B6A19461046FBF74DFE034642
:104F48001C463B685B6A19464FF07E50FBF73AFDFA
:104F5800034679681846FBF73FFE03461946204684
:104F6800FBF732FD03467B603B681B6A194678688D
:104F7800FBF728FD0346BB603B68DB691946B86848
:104F8800FBF72AFE0346FB603B687A681A623B68B7
:104F98009B68B9691846FBF717FD03461946F86878
:104FA800FBF712FD0346FB613B689B691946F869EC
:104FB800FBF7CEFF0346002B03D03B689B69FB61E0
:104FC8000BE03B685B691946F869FBF7A3FF0346EA
:104FD800002B02D03B685B69FB61FB6918462437EC
:104FE800BD4690BD80B584B000AF0346FB71002379
:104FF800FB8109E0FB890133FB81FB8941F288329F
:10500800934201D9002325E002211448FDF710FA44
:105018000346002BEED0FB799BB219460F48FDF7EB
:10502800EAF90023FB8109E0FB890133FB81FB8955
:1050380041F28832934201D900230BE0012107484D
:10504800FDF7F6F90346002BEED00448FDF7E3F927
:105058000346DBB218461037BD4680BD003001401C
:1050680080B582B000AF03460A46FB711346BB7198
:1050780004210948FDF7BDFCFB791846FFF7B2FF8C
:10508800BB791846FFF7AEFF04210348FDF7A2FCE1
:1050980000BF0837BD4680BD000C024080B584B013
:1050A80000AF0346FB710023FB7304210B48FDF797
:1050B800A0FCFB7963F07F03DBB21846FFF792FF91
:1050C800FF20FFF78FFF0346FB7304210348FDF71A
:1050D80081FCFB7B18461037BD4680BD000C0240A2
:1050E800B0B59CB008AF40F60340FDF7CBF940F6E9
:1050F8000140FDF7C7F940F60240FDF7C3F941F258
:105108000C10FDF7BFF940F61640FDF7BBF941F268
:105118000700FDF7B7F94FF08070FDF71BFA38224A
:105128000521A648FDF774FC382301220221A34873
:10513800FDF7B6FB382303220021A048FDF7FDFB4D
:105148000423002201219E48FDF7AAFB0423032221
:1051580000219B48FDF7F1FB04219948FDF73AFC33
:105168000123012200219748FDF79AFB0021022024
:10517800FDF766F8012200210120FDF7ABFC0120B4
:10518800FDF722FD002201210620FDF7D9FA0321AF
:105198008D48FDF739FD8D4B3B608D4BBB6040233F
:1051A800BB610723FB6101237B600023FB600023B5
:1051B8003B6101237B614FF440333B626D4607F14D
:1051C80008040FCC0FC594E8070085E807003B46A4
:1051D8000CCB03217C48FDF7B6FD032203217A4856
:1051E800FEF700FA02217848FDF70EFD774B3B6089
:1051F800784BBB600023BB610723FB6101237B6005
:105208000023FB6000233B6101237B614FF44033A3
:105218003B626D4607F108040FCC0FC594E8070000
:1052280085E807003B460CCB02216748FDF78BFD5C
:10523800032202216448FEF7D5F9102202216248B0
:10524800FEF7B6F8102202215F48FEF7F2F80022B6
:1052580001213A20FDF774FA0023BB624FF48273F0
:105268007B620023FB620323BB634FF400733B6341
:105278003823FB6300237B6307F124031946564850
:10528800FDF74AF807215448FDF7E6F8002152488F
:10529800FDF792F801215048FDF78EF84E48FDF7CA
:1052A8007CF87520FFF7FAFE03461A464B4B83F845
:1052B80038200A20FEF7E8F980216B20FFF7D0FE9E
:1052C8006420FEF7E1F900216B20FFF7C9FE642096
:1052D800FEF7DAF912211B20FFF7C2FE6420FEF761
:1052E800D3F91B20FFF7DAFE03461A463C4B1A7027
:1052F8000A20FEF7C9F908211C20FFF7B1FE642037
:10530800FEF7C2F91C20FFF7C9FE03461A46344BC4
:105318001A700A20FEF7B8F900211D20FFF7A0FE39
:105328006420FEF7B1F91D20FFF7B8FE03461A46C0
:105338002B4B1A700A20FEF7A7F91023FB6307F11D
:10534800240319462448FCF7E7FF244B4FF0645226
:10535800DA62224B234A1A63204B234A5A632348B2
:10536800FCF706FA0023A7F840300023A7F84230DC
:105378000023A7F8443043F2D303BB640023A7F803
:105388004C30002387F84E3007F140031946174880
:10539800FCF70CFB002201212C20FDF7D1F901219B
:1053A8001248FCF7ACFB00211048FCF799FB0F48AA
:1053B800FCF778FB00BF5037BD46B0BD0004024083
:1053C800000C024000080240006402400C3001401A
:1053D8000C040020B406002000300140E80E002034
:1053E800B0060020797D0B3ABF4A443B001C0040C0
:1053F80080B500AF01211E48FCF7B1FB1D4B1A68B0
:105408001D4B1B689A4231D104211C48FDF7F1FA63
:1054180003211B48FEF7C4F802211948FEF7C0F81B
:10542800184B1B78032B0CD1174B184A1A60114BD9
:105438000F221A60164B174A1A600F4B0F221A6078
:105448000BE0114B114A1A600A4B07221A60104BE5
:10545800114A1A60084B07221A6003210848FEF710
:105468007DF802210648FEF779F800E000BF80BD0C
:10547800001C0040446402405C640240000C02408E
:1054880000640240B10600204C640240B4060020CB
:1054980064640240140400200C04002080B582B02B
:1054A80000AF0023FB800023BB8000237B802022E9
:1054B80002212948FDF76CFD0346012B40F06C8161
:1054C800202202212448FDF773FF202203212248CD
:1054D800FDF76EFF214B1B780133DAB21F4B1A70B0
:1054E8001E4B1B78032B43D81D4B9B7A9BB21B0288
:1054F8009AB21B4BDB7A9BB213449BB2FB80184BCE
:105508001B7B9BB21B029AB2154B5B7B9BB213446D
:105518009BB2BB80124B9B7B9BB21B029AB2104B77
:105528001B789BB213449BB27B80B7F906200D4BC6
:105538001B6813440B4A1360B7F904200A4B1B6815
:105548001344094A1360B7F90220084B1B68134437
:10555800064A13601CE100BF00640240B106002047
:10556800B4060020C4060020C8060020CC0600208F
:105578008B4B00221A708B4B9B7A9BB21B029AB200
:10558800884BDB7A9BB213449BB2FB80854B1B7B19
:105598009BB21B029AB2834B5B7B9BB213449BB2B8
:1055A800BB80804B9B7B9BB21B029AB27D4B1B78C6
:1055B8009BB213449BB27B80B7F906207A4B1B68D9
:1055C8001344794A1360B7F90420784B1B681344D5
:1055D800764A1360B7F90220754B1B681344744A66
:1055E8001360714B1B68002B00DA03339B101AB24F
:1055F800704B1A816D4B1B68002B00DA03339B102C
:105608001AB26C4B5A816A4B1B68002B00DA0333C1
:105618009B101AB2674B9A81624B1B7A9BB21B0292
:105628009AB2604B5B7A9BB213449BB21AB2614B3D
:10563800DA805C4B9B789BB21B029AB2594BDB78A1
:105648009BB213449BB21AB25A4B1A80554B1B7922
:105658009BB21B029AB2534B5B799BB213449BB229
:105668001AB2544B5A804F4B9B799BB21B029AB289
:105678004C4BDB799BB213449BB21AB24D4B9A80C8
:10568800494B00221A60494B00221A60484B0022FD
:105698001A60484BB3F900301846FBF749FA02463E
:1056A800444BDB6A19461046FBF796FA03461A463E
:1056B800404B1A613F4BB3F902301846FBF738FAF2
:1056C80002463C4BDB6A19461046FBF785FA03464F
:1056D8001A46384B5A61374BB3F904301846FBF772
:1056E80027FA0246334BDB6A19461046FBF774FA71
:1056F80003461A462F4B9A612E4BB3F906301846CB
:10570800FBF716FA02462B4B5B6B19461046FBF764
:1057180063FA034628491846FBF756F903461A4622
:10572800244BDA61234BB3F908301846FBF700FA2B
:105738000246204B1B6B19461046FBF74DFA0346F1
:105748001A461C4B1A621B4BB3F90A301846FBF772
:10575800EFF90246174B1B6B19461046FBF73CFA4C
:1057680003461A46134B5A62124BB3F90C301846CB
:10577800FBF7DEF902460F4B1B6B19461046FBF789
:105788002BFA03461A460B4B9A620120FDF72AFAB8
:1057980004210A48FDF71EF900BF0837BD4680BD41
:1057A800B1060020B4060020C4060020C806002068
:1057B800CC060020E80E00200000A841000C0240A2
:1057C80080B500AF0120FDF7FFF9FEF73FF800BFF5
:1057D80080BD000080B400AFBFF34F8F00BF074B00
:1057E800DB6803F4E0620549054B1343CB60BFF364
:1057F8004F8F00BF00BF00BFFCE700BF00ED00E017
:105808000400FA0580B586B000AF78600023FB82FB
:105818000023BB8200237B8200233B820023FB738F
:105828000023BB817B681B78002B05D1394800F029
:1058380091F90346BB8200E000BF0023FB8260E0D1
:105848007B685B88C3F104037B82BA8AFB8AD31A1C
:105858003B823A8A7B8A9A421AD37B685B881A46CB
:105868007B681344181DFB8A2A4A13447A8A19460E
:1058780001F07EF97B685A887B8A13449AB27B6868
:105888005A807A8AFB8A13449BB2013BFB8219E057
:105898007B685B881A467B681344181DFB8A1D4A7F
:1058A80013443A8A194601F063F97B685A883B8A9F
:1058B80013449AB27B685A803A8AFB8A13449BB293
:1058C800013BFB827B685B88042B17D17B681B79C3
:1058D800EB2B13D17B685B79902B0FD17B689B797D
:1058E800A52B0BD17B68022283F807210A48FBF716
:1058F8007BFD0948FBF7B8FBFFF76CFFFB8A013318
:10590800FB82FA8ABB8A9A429AD300BF00BF183733
:10591800BD4680BDD807002000480040B0B594B00F
:1059280008AF786040F60240FCF7ACFD41F2120087
:10593800FCF7A8FD40F61540FCF7A4FD4FF4806283
:1059480007217348FDF764F84FF400620721704897
:10595800FDF75EF84FF48063012202216C48FCF7E2
:105968009FFF4FF48063022200216948FCF7E5FF9E
:105978004FF40063012202216548FCF791FF4FF4C0
:105988000063022200216248FCF7D7FF6148FBF759
:105998006BFB79685F48FBF701FC00215D48FBF76A
:1059A800DCFC00215B48FBF7F3FC00215948FBF7BE
:1059B800B9FC00215748FBF772FD00215548FBF759
:1059C8008BFD04215348FBF73DFD08215148FBF7A7
:1059D8001CFD012202212720FCF7B2FE40214D4880
:1059E800FBF797FD80214B48FBF7B0FD062149489E
:1059F800FBF7E7FD48494748FBF704FE0121474804
:105A0800FDF702F9464BFB60464B7B6100237B6246
:105A18004023BB6201233B610023BB610023FB6180
:105A280001233B624FF44033FB626D4607F11404D7
:105A38000FCC0FC594E8070085E8070007F10C03B1
:105A48000CCB01213548FDF77EF9042201213348AA
:105A5800FDF7C8FD344B40221A80012202210C2098
:105A6800FCF76EFE03212D48FDF7CEF82C4BFB60AA
:105A78002E4B7B6140237B624FF48063BB62012322
:105A88003B610023BB610023FB6101233B624FF4B0
:105A98004033FB626D4607F114040FCC0FC594E840
:105AA800070085E8070007F10C030CCB03211B480E
:105AB800FDF749F9042203211848FDF793FD012257
:105AC80002210E20FCF73CFE01211448FDF746FD9B
